{"abi":[{"inputs":[],"name":"enter","outputs":[],"stateMutability":"payable","type":"function"},{"inputs":[{"internalType":"uint256","name":"","type":"uint256"}],"name":"thisPool","outputs":[{"internalType":"address","name":"","type":"address"}],"stateMutability":"view","type":"function"}],"devdoc":{"kind":"dev","methods":{},"version":1},"evm":{"assembly":"    /* \"fileName\":61:703  contract MyContract{... */\n  mstore(0x40, 0x80)\n  callvalue\n  dup1\n  iszero\n  tag_1\n  jumpi\n  0x00\n  dup1\n  revert\ntag_1:\n  pop\n  dataSize(sub_0)\n  dup1\n  dataOffset(sub_0)\n  0x00\n  codecopy\n  0x00\n  return\nstop\n\nsub_0: assembly {\n        /* \"fileName\":61:703  contract MyContract{... */\n      mstore(0x40, 0x80)\n      jumpi(tag_1, lt(calldatasize, 0x04))\n      shr(0xe0, calldataload(0x00))\n      dup1\n      0xd0111aa8\n      eq\n      tag_2\n      jumpi\n      dup1\n      0xe97dcb62\n      eq\n      tag_3\n      jumpi\n    tag_1:\n      0x00\n      dup1\n      revert\n        /* \"fileName\":86:111  address[] public thisPool */\n    tag_2:\n      callvalue\n      dup1\n      iszero\n      tag_4\n      jumpi\n      0x00\n      dup1\n      revert\n    tag_4:\n      pop\n      tag_5\n      0x04\n      dup1\n      calldatasize\n      sub\n      dup2\n      add\n      swap1\n      tag_6\n      swap2\n      swap1\n      tag_7\n      jump\t// in\n    tag_6:\n      tag_8\n      jump\t// in\n    tag_5:\n      mload(0x40)\n      tag_9\n      swap2\n      swap1\n      tag_10\n      jump\t// in\n    tag_9:\n      mload(0x40)\n      dup1\n      swap2\n      sub\n      swap1\n      return\n        /* \"fileName\":118:701  function enter() public payable {... */\n    tag_3:\n      tag_11\n      tag_12\n      jump\t// in\n    tag_11:\n      stop\n        /* \"fileName\":86:111  address[] public thisPool */\n    tag_8:\n      0x00\n      dup2\n      dup2\n      sload\n      dup2\n      lt\n      tag_13\n      jumpi\n      0x00\n      dup1\n      revert\n    tag_13:\n      swap1\n      0x00\n      mstore\n      keccak256(0x00, 0x20)\n      add\n      0x00\n      swap2\n      pop\n      sload\n      swap1\n      0x0100\n      exp\n      swap1\n      div\n      0xffffffffffffffffffffffffffffffffffffffff\n      and\n      dup2\n      jump\t// out\n        /* \"fileName\":118:701  function enter() public payable {... */\n    tag_12:\n        /* \"fileName\":164:170  uint i */\n      0x00\n        /* \"fileName\":160:293  for(uint i = 0; i < thisPool.length; i++){... */\n    tag_16:\n        /* \"fileName\":180:188  thisPool */\n      0x00\n        /* \"fileName\":180:195  thisPool.length */\n      dup1\n      sload\n      swap1\n      pop\n        /* \"fileName\":176:177  i */\n      dup2\n        /* \"fileName\":176:195  i < thisPool.length */\n      lt\n        /* \"fileName\":160:293  for(uint i = 0; i < thisPool.length; i++){... */\n      iszero\n      tag_17\n      jumpi\n        /* \"fileName\":233:243  msg.sender */\n      caller\n        /* \"fileName\":218:243  thisPool[i] == msg.sender */\n      0xffffffffffffffffffffffffffffffffffffffff\n      and\n        /* \"fileName\":218:226  thisPool */\n      0x00\n        /* \"fileName\":227:228  i */\n      dup3\n        /* \"fileName\":218:229  thisPool[i] */\n      dup2\n      sload\n      dup2\n      lt\n      tag_19\n      jumpi\n      mstore(0x00, 0x4e487b7100000000000000000000000000000000000000000000000000000000)\n      mstore(0x04, 0x32)\n      revert(0x00, 0x24)\n    tag_19:\n      swap1\n      0x00\n      mstore\n      keccak256(0x00, 0x20)\n      add\n      0x00\n      swap1\n      sload\n      swap1\n      0x0100\n      exp\n      swap1\n      div\n      0xffffffffffffffffffffffffffffffffffffffff\n      and\n        /* \"fileName\":218:243  thisPool[i] == msg.sender */\n      0xffffffffffffffffffffffffffffffffffffffff\n      and\n      eq\n        /* \"fileName\":215:283  if(thisPool[i] == msg.sender){... */\n      iszero\n      tag_21\n      jumpi\n        /* \"fileName\":262:269  return; */\n      pop\n      jump(tag_15)\n        /* \"fileName\":215:283  if(thisPool[i] == msg.sender){... */\n    tag_21:\n        /* \"fileName\":197:200  i++ */\n      dup1\n      dup1\n      tag_22\n      swap1\n      tag_23\n      jump\t// in\n    tag_22:\n      swap2\n      pop\n      pop\n        /* \"fileName\":160:293  for(uint i = 0; i < thisPool.length; i++){... */\n      jump(tag_16)\n    tag_17:\n      pop\n        /* \"fileName\":311:319  thisPool */\n      0x00\n        /* \"fileName\":325:335  msg.sender */\n      caller\n        /* \"fileName\":311:336  thisPool.push(msg.sender) */\n      swap1\n      dup1\n      0x01\n      dup2\n      sload\n      add\n      dup1\n      dup3\n      sstore\n      dup1\n      swap2\n      pop\n      pop\n      0x01\n      swap1\n      sub\n      swap1\n      0x00\n      mstore\n      keccak256(0x00, 0x20)\n      add\n      0x00\n      swap1\n      swap2\n      swap1\n      swap2\n      swap1\n      swap2\n      0x0100\n      exp\n      dup2\n      sload\n      dup2\n      0xffffffffffffffffffffffffffffffffffffffff\n      mul\n      not\n      and\n      swap1\n      dup4\n      0xffffffffffffffffffffffffffffffffffffffff\n      and\n      mul\n      or\n      swap1\n      sstore\n      pop\n        /* \"fileName\":386:387  5 */\n      0x05\n        /* \"fileName\":367:375  thisPool */\n      0x00\n        /* \"fileName\":367:382  thisPool.length */\n      dup1\n      sload\n      swap1\n      pop\n        /* \"fileName\":367:387  thisPool.length >= 5 */\n      lt\n        /* \"fileName\":364:695  if(thisPool.length >= 5){... */\n      tag_25\n      jumpi\n        /* \"fileName\":402:415  uint winnerId */\n      0x00\n        /* \"fileName\":598:599  5 */\n      0x05\n        /* \"fileName\":467:482  block.timestamp */\n      timestamp\n        /* \"fileName\":484:492  thisPool */\n      0x00\n        /* \"fileName\":493:494  0 */\n      dup1\n        /* \"fileName\":484:495  thisPool[0] */\n      dup2\n      sload\n      dup2\n      lt\n      tag_26\n      jumpi\n      mstore(0x00, 0x4e487b7100000000000000000000000000000000000000000000000000000000)\n      mstore(0x04, 0x32)\n      revert(0x00, 0x24)\n    tag_26:\n      swap1\n      0x00\n      mstore\n      keccak256(0x00, 0x20)\n      add\n      0x00\n      swap1\n      sload\n      swap1\n      0x0100\n      exp\n      swap1\n      div\n      0xffffffffffffffffffffffffffffffffffffffff\n      and\n        /* \"fileName\":514:522  thisPool */\n      0x00\n        /* \"fileName\":523:524  1 */\n      0x01\n        /* \"fileName\":514:525  thisPool[1] */\n      dup2\n      sload\n      dup2\n      lt\n      tag_28\n      jumpi\n      mstore(0x00, 0x4e487b7100000000000000000000000000000000000000000000000000000000)\n      mstore(0x04, 0x32)\n      revert(0x00, 0x24)\n    tag_28:\n      swap1\n      0x00\n      mstore\n      keccak256(0x00, 0x20)\n      add\n      0x00\n      swap1\n      sload\n      swap1\n      0x0100\n      exp\n      swap1\n      div\n      0xffffffffffffffffffffffffffffffffffffffff\n      and\n        /* \"fileName\":527:535  thisPool */\n      0x00\n        /* \"fileName\":536:537  2 */\n      0x02\n        /* \"fileName\":527:538  thisPool[2] */\n      dup2\n      sload\n      dup2\n      lt\n      tag_30\n      jumpi\n      mstore(0x00, 0x4e487b7100000000000000000000000000000000000000000000000000000000)\n      mstore(0x04, 0x32)\n      revert(0x00, 0x24)\n    tag_30:\n      swap1\n      0x00\n      mstore\n      keccak256(0x00, 0x20)\n      add\n      0x00\n      swap1\n      sload\n      swap1\n      0x0100\n      exp\n      swap1\n      div\n      0xffffffffffffffffffffffffffffffffffffffff\n      and\n        /* \"fileName\":557:565  thisPool */\n      0x00\n        /* \"fileName\":566:567  3 */\n      0x03\n        /* \"fileName\":557:568  thisPool[3] */\n      dup2\n      sload\n      dup2\n      lt\n      tag_32\n      jumpi\n      mstore(0x00, 0x4e487b7100000000000000000000000000000000000000000000000000000000)\n      mstore(0x04, 0x32)\n      revert(0x00, 0x24)\n    tag_32:\n      swap1\n      0x00\n      mstore\n      keccak256(0x00, 0x20)\n      add\n      0x00\n      swap1\n      sload\n      swap1\n      0x0100\n      exp\n      swap1\n      div\n      0xffffffffffffffffffffffffffffffffffffffff\n      and\n        /* \"fileName\":570:578  thisPool */\n      0x00\n        /* \"fileName\":579:580  4 */\n      0x04\n        /* \"fileName\":570:581  thisPool[4] */\n      dup2\n      sload\n      dup2\n      lt\n      tag_34\n      jumpi\n      mstore(0x00, 0x4e487b7100000000000000000000000000000000000000000000000000000000)\n      mstore(0x04, 0x32)\n      revert(0x00, 0x24)\n    tag_34:\n      swap1\n      0x00\n      mstore\n      keccak256(0x00, 0x20)\n      add\n      0x00\n      swap1\n      sload\n      swap1\n      0x0100\n      exp\n      swap1\n      div\n      0xffffffffffffffffffffffffffffffffffffffff\n      and\n        /* \"fileName\":433:595  abi.encodePacked(... */\n      add(0x20, mload(0x40))\n      tag_36\n      swap7\n      swap6\n      swap5\n      swap4\n      swap3\n      swap2\n      swap1\n      tag_37\n      jump\t// in\n    tag_36:\n      mload(0x40)\n      0x20\n      dup2\n      dup4\n      sub\n      sub\n      dup2\n      mstore\n      swap1\n      0x40\n      mstore\n        /* \"fileName\":423:596  keccak256(abi.encodePacked(... */\n      dup1\n      mload\n      swap1\n      0x20\n      add\n      keccak256\n        /* \"fileName\":418:597  uint(keccak256(abi.encodePacked(... */\n      0x00\n      shr\n        /* \"fileName\":418:599  uint(keccak256(abi.encodePacked(... */\n      tag_38\n      swap2\n      swap1\n      tag_39\n      jump\t// in\n    tag_38:\n        /* \"fileName\":402:599  uint winnerId = uint(keccak256(abi.encodePacked(... */\n      swap1\n      pop\n        /* \"fileName\":630:640  msg.sender */\n      caller\n        /* \"fileName\":614:651  payable(address(msg.sender)).transfer */\n      0xffffffffffffffffffffffffffffffffffffffff\n      and\n        /* \"fileName\":614:684  payable(address(msg.sender)).transfer(address(this).balance - 1000000) */\n      0x08fc\n        /* \"fileName\":676:683  1000000 */\n      0x0f4240\n        /* \"fileName\":652:673  address(this).balance */\n      selfbalance\n        /* \"fileName\":652:683  address(this).balance - 1000000 */\n      tag_40\n      swap2\n      swap1\n      tag_41\n      jump\t// in\n    tag_40:\n        /* \"fileName\":614:684  payable(address(msg.sender)).transfer(address(this).balance - 1000000) */\n      swap1\n      dup2\n      iszero\n      mul\n      swap1\n      mload(0x40)\n      0x00\n      mload(0x40)\n      dup1\n      dup4\n      sub\n      dup2\n      dup6\n      dup9\n      dup9\n      call\n      swap4\n      pop\n      pop\n      pop\n      pop\n      iszero\n      dup1\n      iszero\n      tag_43\n      jumpi\n      returndatasize\n      0x00\n      dup1\n      returndatacopy\n      revert(0x00, returndatasize)\n    tag_43:\n      pop\n        /* \"fileName\":364:695  if(thisPool.length >= 5){... */\n      pop\n    tag_25:\n        /* \"fileName\":118:701  function enter() public payable {... */\n    tag_15:\n      jump\t// out\n        /* \"#utility.yul\":7:146   */\n    tag_45:\n      0x00\n        /* \"#utility.yul\":91:97   */\n      dup2\n        /* \"#utility.yul\":78:98   */\n      calldataload\n        /* \"#utility.yul\":69:98   */\n      swap1\n      pop\n        /* \"#utility.yul\":107:140   */\n      tag_47\n        /* \"#utility.yul\":134:139   */\n      dup2\n        /* \"#utility.yul\":107:140   */\n      tag_48\n      jump\t// in\n    tag_47:\n        /* \"#utility.yul\":59:146   */\n      swap3\n      swap2\n      pop\n      pop\n      jump\t// out\n        /* \"#utility.yul\":152:414   */\n    tag_7:\n      0x00\n        /* \"#utility.yul\":260:262   */\n      0x20\n        /* \"#utility.yul\":248:257   */\n      dup3\n        /* \"#utility.yul\":239:246   */\n      dup5\n        /* \"#utility.yul\":235:258   */\n      sub\n        /* \"#utility.yul\":231:263   */\n      slt\n        /* \"#utility.yul\":228:230   */\n      iszero\n      tag_50\n      jumpi\n        /* \"#utility.yul\":276:277   */\n      0x00\n        /* \"#utility.yul\":273:274   */\n      dup1\n        /* \"#utility.yul\":266:278   */\n      revert\n        /* \"#utility.yul\":228:230   */\n    tag_50:\n        /* \"#utility.yul\":319:320   */\n      0x00\n        /* \"#utility.yul\":344:397   */\n      tag_51\n        /* \"#utility.yul\":389:396   */\n      dup5\n        /* \"#utility.yul\":380:386   */\n      dup3\n        /* \"#utility.yul\":369:378   */\n      dup6\n        /* \"#utility.yul\":365:387   */\n      add\n        /* \"#utility.yul\":344:397   */\n      tag_45\n      jump\t// in\n    tag_51:\n        /* \"#utility.yul\":334:397   */\n      swap2\n      pop\n        /* \"#utility.yul\":290:407   */\n      pop\n        /* \"#utility.yul\":218:414   */\n      swap3\n      swap2\n      pop\n      pop\n      jump\t// out\n        /* \"#utility.yul\":420:538   */\n    tag_52:\n        /* \"#utility.yul\":507:531   */\n      tag_54\n        /* \"#utility.yul\":525:530   */\n      dup2\n        /* \"#utility.yul\":507:531   */\n      tag_55\n      jump\t// in\n    tag_54:\n        /* \"#utility.yul\":502:505   */\n      dup3\n        /* \"#utility.yul\":495:532   */\n      mstore\n        /* \"#utility.yul\":485:538   */\n      pop\n      pop\n      jump\t// out\n        /* \"#utility.yul\":544:701   */\n    tag_56:\n        /* \"#utility.yul\":649:694   */\n      tag_58\n        /* \"#utility.yul\":669:693   */\n      tag_59\n        /* \"#utility.yul\":687:692   */\n      dup3\n        /* \"#utility.yul\":669:693   */\n      tag_55\n      jump\t// in\n    tag_59:\n        /* \"#utility.yul\":649:694   */\n      tag_60\n      jump\t// in\n    tag_58:\n        /* \"#utility.yul\":644:647   */\n      dup3\n        /* \"#utility.yul\":637:695   */\n      mstore\n        /* \"#utility.yul\":627:701   */\n      pop\n      pop\n      jump\t// out\n        /* \"#utility.yul\":707:864   */\n    tag_61:\n        /* \"#utility.yul\":812:857   */\n      tag_63\n        /* \"#utility.yul\":832:856   */\n      tag_64\n        /* \"#utility.yul\":850:855   */\n      dup3\n        /* \"#utility.yul\":832:856   */\n      tag_65\n      jump\t// in\n    tag_64:\n        /* \"#utility.yul\":812:857   */\n      tag_66\n      jump\t// in\n    tag_63:\n        /* \"#utility.yul\":807:810   */\n      dup3\n        /* \"#utility.yul\":800:858   */\n      mstore\n        /* \"#utility.yul\":790:864   */\n      pop\n      pop\n      jump\t// out\n        /* \"#utility.yul\":870:1831   */\n    tag_37:\n      0x00\n        /* \"#utility.yul\":1137:1212   */\n      tag_68\n        /* \"#utility.yul\":1208:1211   */\n      dup3\n        /* \"#utility.yul\":1199:1205   */\n      dup10\n        /* \"#utility.yul\":1137:1212   */\n      tag_61\n      jump\t// in\n    tag_68:\n        /* \"#utility.yul\":1237:1239   */\n      0x20\n        /* \"#utility.yul\":1232:1235   */\n      dup3\n        /* \"#utility.yul\":1228:1240   */\n      add\n        /* \"#utility.yul\":1221:1240   */\n      swap2\n      pop\n        /* \"#utility.yul\":1250:1325   */\n      tag_69\n        /* \"#utility.yul\":1321:1324   */\n      dup3\n        /* \"#utility.yul\":1312:1318   */\n      dup9\n        /* \"#utility.yul\":1250:1325   */\n      tag_56\n      jump\t// in\n    tag_69:\n        /* \"#utility.yul\":1350:1352   */\n      0x14\n        /* \"#utility.yul\":1345:1348   */\n      dup3\n        /* \"#utility.yul\":1341:1353   */\n      add\n        /* \"#utility.yul\":1334:1353   */\n      swap2\n      pop\n        /* \"#utility.yul\":1363:1438   */\n      tag_70\n        /* \"#utility.yul\":1434:1437   */\n      dup3\n        /* \"#utility.yul\":1425:1431   */\n      dup8\n        /* \"#utility.yul\":1363:1438   */\n      tag_56\n      jump\t// in\n    tag_70:\n        /* \"#utility.yul\":1463:1465   */\n      0x14\n        /* \"#utility.yul\":1458:1461   */\n      dup3\n        /* \"#utility.yul\":1454:1466   */\n      add\n        /* \"#utility.yul\":1447:1466   */\n      swap2\n      pop\n        /* \"#utility.yul\":1476:1551   */\n      tag_71\n        /* \"#utility.yul\":1547:1550   */\n      dup3\n        /* \"#utility.yul\":1538:1544   */\n      dup7\n        /* \"#utility.yul\":1476:1551   */\n      tag_56\n      jump\t// in\n    tag_71:\n        /* \"#utility.yul\":1576:1578   */\n      0x14\n        /* \"#utility.yul\":1571:1574   */\n      dup3\n        /* \"#utility.yul\":1567:1579   */\n      add\n        /* \"#utility.yul\":1560:1579   */\n      swap2\n      pop\n        /* \"#utility.yul\":1589:1664   */\n      tag_72\n        /* \"#utility.yul\":1660:1663   */\n      dup3\n        /* \"#utility.yul\":1651:1657   */\n      dup6\n        /* \"#utility.yul\":1589:1664   */\n      tag_56\n      jump\t// in\n    tag_72:\n        /* \"#utility.yul\":1689:1691   */\n      0x14\n        /* \"#utility.yul\":1684:1687   */\n      dup3\n        /* \"#utility.yul\":1680:1692   */\n      add\n        /* \"#utility.yul\":1673:1692   */\n      swap2\n      pop\n        /* \"#utility.yul\":1702:1777   */\n      tag_73\n        /* \"#utility.yul\":1773:1776   */\n      dup3\n        /* \"#utility.yul\":1764:1770   */\n      dup5\n        /* \"#utility.yul\":1702:1777   */\n      tag_56\n      jump\t// in\n    tag_73:\n        /* \"#utility.yul\":1802:1804   */\n      0x14\n        /* \"#utility.yul\":1797:1800   */\n      dup3\n        /* \"#utility.yul\":1793:1805   */\n      add\n        /* \"#utility.yul\":1786:1805   */\n      swap2\n      pop\n        /* \"#utility.yul\":1822:1825   */\n      dup2\n        /* \"#utility.yul\":1815:1825   */\n      swap1\n      pop\n        /* \"#utility.yul\":1126:1831   */\n      swap8\n      swap7\n      pop\n      pop\n      pop\n      pop\n      pop\n      pop\n      pop\n      jump\t// out\n        /* \"#utility.yul\":1837:2059   */\n    tag_10:\n      0x00\n        /* \"#utility.yul\":1968:1970   */\n      0x20\n        /* \"#utility.yul\":1957:1966   */\n      dup3\n        /* \"#utility.yul\":1953:1971   */\n      add\n        /* \"#utility.yul\":1945:1971   */\n      swap1\n      pop\n        /* \"#utility.yul\":1981:2052   */\n      tag_75\n        /* \"#utility.yul\":2049:2050   */\n      0x00\n        /* \"#utility.yul\":2038:2047   */\n      dup4\n        /* \"#utility.yul\":2034:2051   */\n      add\n        /* \"#utility.yul\":2025:2031   */\n      dup5\n        /* \"#utility.yul\":1981:2052   */\n      tag_52\n      jump\t// in\n    tag_75:\n        /* \"#utility.yul\":1935:2059   */\n      swap3\n      swap2\n      pop\n      pop\n      jump\t// out\n        /* \"#utility.yul\":2065:2256   */\n    tag_41:\n      0x00\n        /* \"#utility.yul\":2125:2145   */\n      tag_77\n        /* \"#utility.yul\":2143:2144   */\n      dup3\n        /* \"#utility.yul\":2125:2145   */\n      tag_65\n      jump\t// in\n    tag_77:\n        /* \"#utility.yul\":2120:2145   */\n      swap2\n      pop\n        /* \"#utility.yul\":2159:2179   */\n      tag_78\n        /* \"#utility.yul\":2177:2178   */\n      dup4\n        /* \"#utility.yul\":2159:2179   */\n      tag_65\n      jump\t// in\n    tag_78:\n        /* \"#utility.yul\":2154:2179   */\n      swap3\n      pop\n        /* \"#utility.yul\":2198:2199   */\n      dup3\n        /* \"#utility.yul\":2195:2196   */\n      dup3\n        /* \"#utility.yul\":2192:2200   */\n      lt\n        /* \"#utility.yul\":2189:2191   */\n      iszero\n      tag_79\n      jumpi\n        /* \"#utility.yul\":2203:2221   */\n      tag_80\n      tag_81\n      jump\t// in\n    tag_80:\n        /* \"#utility.yul\":2189:2191   */\n    tag_79:\n        /* \"#utility.yul\":2248:2249   */\n      dup3\n        /* \"#utility.yul\":2245:2246   */\n      dup3\n        /* \"#utility.yul\":2241:2250   */\n      sub\n        /* \"#utility.yul\":2233:2250   */\n      swap1\n      pop\n        /* \"#utility.yul\":2110:2256   */\n      swap3\n      swap2\n      pop\n      pop\n      jump\t// out\n        /* \"#utility.yul\":2262:2358   */\n    tag_55:\n      0x00\n        /* \"#utility.yul\":2328:2352   */\n      tag_83\n        /* \"#utility.yul\":2346:2351   */\n      dup3\n        /* \"#utility.yul\":2328:2352   */\n      tag_84\n      jump\t// in\n    tag_83:\n        /* \"#utility.yul\":2317:2352   */\n      swap1\n      pop\n        /* \"#utility.yul\":2307:2358   */\n      swap2\n      swap1\n      pop\n      jump\t// out\n        /* \"#utility.yul\":2364:2490   */\n    tag_84:\n      0x00\n        /* \"#utility.yul\":2441:2483   */\n      0xffffffffffffffffffffffffffffffffffffffff\n        /* \"#utility.yul\":2434:2439   */\n      dup3\n        /* \"#utility.yul\":2430:2484   */\n      and\n        /* \"#utility.yul\":2419:2484   */\n      swap1\n      pop\n        /* \"#utility.yul\":2409:2490   */\n      swap2\n      swap1\n      pop\n      jump\t// out\n        /* \"#utility.yul\":2496:2573   */\n    tag_65:\n      0x00\n        /* \"#utility.yul\":2562:2567   */\n      dup2\n        /* \"#utility.yul\":2551:2567   */\n      swap1\n      pop\n        /* \"#utility.yul\":2541:2573   */\n      swap2\n      swap1\n      pop\n      jump\t// out\n        /* \"#utility.yul\":2579:2812   */\n    tag_23:\n      0x00\n        /* \"#utility.yul\":2641:2665   */\n      tag_88\n        /* \"#utility.yul\":2659:2664   */\n      dup3\n        /* \"#utility.yul\":2641:2665   */\n      tag_65\n      jump\t// in\n    tag_88:\n        /* \"#utility.yul\":2632:2665   */\n      swap2\n      pop\n        /* \"#utility.yul\":2687:2753   */\n      0xffffffffffffffffffffffffffffffffffffffffffffffffffffffffffffffff\n        /* \"#utility.yul\":2680:2685   */\n      dup3\n        /* \"#utility.yul\":2677:2754   */\n      eq\n        /* \"#utility.yul\":2674:2676   */\n      iszero\n      tag_89\n      jumpi\n        /* \"#utility.yul\":2757:2775   */\n      tag_90\n      tag_81\n      jump\t// in\n    tag_90:\n        /* \"#utility.yul\":2674:2676   */\n    tag_89:\n        /* \"#utility.yul\":2804:2805   */\n      0x01\n        /* \"#utility.yul\":2797:2802   */\n      dup3\n        /* \"#utility.yul\":2793:2806   */\n      add\n        /* \"#utility.yul\":2786:2806   */\n      swap1\n      pop\n        /* \"#utility.yul\":2622:2812   */\n      swap2\n      swap1\n      pop\n      jump\t// out\n        /* \"#utility.yul\":2818:2918   */\n    tag_60:\n      0x00\n        /* \"#utility.yul\":2886:2912   */\n      tag_92\n        /* \"#utility.yul\":2906:2911   */\n      dup3\n        /* \"#utility.yul\":2886:2912   */\n      tag_93\n      jump\t// in\n    tag_92:\n        /* \"#utility.yul\":2875:2912   */\n      swap1\n      pop\n        /* \"#utility.yul\":2865:2918   */\n      swap2\n      swap1\n      pop\n      jump\t// out\n        /* \"#utility.yul\":2924:3018   */\n    tag_93:\n      0x00\n        /* \"#utility.yul\":2992:3012   */\n      tag_95\n        /* \"#utility.yul\":3006:3011   */\n      dup3\n        /* \"#utility.yul\":2992:3012   */\n      tag_96\n      jump\t// in\n    tag_95:\n        /* \"#utility.yul\":2981:3012   */\n      swap1\n      pop\n        /* \"#utility.yul\":2971:3018   */\n      swap2\n      swap1\n      pop\n      jump\t// out\n        /* \"#utility.yul\":3024:3103   */\n    tag_66:\n      0x00\n        /* \"#utility.yul\":3092:3097   */\n      dup2\n        /* \"#utility.yul\":3081:3097   */\n      swap1\n      pop\n        /* \"#utility.yul\":3071:3103   */\n      swap2\n      swap1\n      pop\n      jump\t// out\n        /* \"#utility.yul\":3109:3285   */\n    tag_39:\n      0x00\n        /* \"#utility.yul\":3158:3178   */\n      tag_99\n        /* \"#utility.yul\":3176:3177   */\n      dup3\n        /* \"#utility.yul\":3158:3178   */\n      tag_65\n      jump\t// in\n    tag_99:\n        /* \"#utility.yul\":3153:3178   */\n      swap2\n      pop\n        /* \"#utility.yul\":3192:3212   */\n      tag_100\n        /* \"#utility.yul\":3210:3211   */\n      dup4\n        /* \"#utility.yul\":3192:3212   */\n      tag_65\n      jump\t// in\n    tag_100:\n        /* \"#utility.yul\":3187:3212   */\n      swap3\n      pop\n        /* \"#utility.yul\":3231:3232   */\n      dup3\n        /* \"#utility.yul\":3221:3223   */\n      tag_101\n      jumpi\n        /* \"#utility.yul\":3236:3254   */\n      tag_102\n      tag_103\n      jump\t// in\n    tag_102:\n        /* \"#utility.yul\":3221:3223   */\n    tag_101:\n        /* \"#utility.yul\":3277:3278   */\n      dup3\n        /* \"#utility.yul\":3274:3275   */\n      dup3\n        /* \"#utility.yul\":3270:3279   */\n      mod\n        /* \"#utility.yul\":3265:3279   */\n      swap1\n      pop\n        /* \"#utility.yul\":3143:3285   */\n      swap3\n      swap2\n      pop\n      pop\n      jump\t// out\n        /* \"#utility.yul\":3291:3471   */\n    tag_81:\n        /* \"#utility.yul\":3339:3416   */\n      0x4e487b7100000000000000000000000000000000000000000000000000000000\n        /* \"#utility.yul\":3336:3337   */\n      0x00\n        /* \"#utility.yul\":3329:3417   */\n      mstore\n        /* \"#utility.yul\":3436:3440   */\n      0x11\n        /* \"#utility.yul\":3433:3434   */\n      0x04\n        /* \"#utility.yul\":3426:3441   */\n      mstore\n        /* \"#utility.yul\":3460:3464   */\n      0x24\n        /* \"#utility.yul\":3457:3458   */\n      0x00\n        /* \"#utility.yul\":3450:3465   */\n      revert\n        /* \"#utility.yul\":3477:3657   */\n    tag_103:\n        /* \"#utility.yul\":3525:3602   */\n      0x4e487b7100000000000000000000000000000000000000000000000000000000\n        /* \"#utility.yul\":3522:3523   */\n      0x00\n        /* \"#utility.yul\":3515:3603   */\n      mstore\n        /* \"#utility.yul\":3622:3626   */\n      0x12\n        /* \"#utility.yul\":3619:3620   */\n      0x04\n        /* \"#utility.yul\":3612:3627   */\n      mstore\n        /* \"#utility.yul\":3646:3650   */\n      0x24\n        /* \"#utility.yul\":3643:3644   */\n      0x00\n        /* \"#utility.yul\":3636:3651   */\n      revert\n        /* \"#utility.yul\":3663:3757   */\n    tag_96:\n      0x00\n        /* \"#utility.yul\":3744:3749   */\n      dup2\n        /* \"#utility.yul\":3740:3742   */\n      0x60\n        /* \"#utility.yul\":3736:3750   */\n      shl\n        /* \"#utility.yul\":3715:3750   */\n      swap1\n      pop\n        /* \"#utility.yul\":3705:3757   */\n      swap2\n      swap1\n      pop\n      jump\t// out\n        /* \"#utility.yul\":3763:3885   */\n    tag_48:\n        /* \"#utility.yul\":3836:3860   */\n      tag_108\n        /* \"#utility.yul\":3854:3859   */\n      dup2\n        /* \"#utility.yul\":3836:3860   */\n      tag_65\n      jump\t// in\n    tag_108:\n        /* \"#utility.yul\":3829:3834   */\n      dup2\n        /* \"#utility.yul\":3826:3861   */\n      eq\n        /* \"#utility.yul\":3816:3818   */\n      tag_109\n      jumpi\n        /* \"#utility.yul\":3875:3876   */\n      0x00\n        /* \"#utility.yul\":3872:3873   */\n      dup1\n        /* \"#utility.yul\":3865:3877   */\n      revert\n        /* \"#utility.yul\":3816:3818   */\n    tag_109:\n        /* \"#utility.yul\":3806:3885   */\n      pop\n      jump\t// out\n\n    auxdata: 0xa2646970667358221220972f2b7eb06562077622bc63289eadc4387edcd55ae646bd81f3d52660d7d09b64736f6c63430008000033\n}\n","bytecode":{"linkReferences":{},"object":"608060405234801561001057600080fd5b50610752806100206000396000f3fe6080604052600436106100295760003560e01c8063d0111aa81461002e578063e97dcb621461006b575b600080fd5b34801561003a57600080fd5b5061005560048036038101906100509190610491565b610075565b6040516100629190610567565b60405180910390f35b6100736100b4565b005b6000818154811061008557600080fd5b906000526020600020016000915054906101000a900473ffffffffffffffffffffffffffffffffffffffff1681565b60005b600080549050811015610175573373ffffffffffffffffffffffffffffffffffffffff1660008281548110610115577f4e487b7100000000000000000000000000000000000000000000000000000000600052603260045260246000fd5b9060005260206000200160009054906101000a900473ffffffffffffffffffffffffffffffffffffffff1673ffffffffffffffffffffffffffffffffffffffff161415610162575061047a565b808061016d906105f2565b9150506100b7565b506000339080600181540180825580915050600190039060005260206000200160009091909190916101000a81548173ffffffffffffffffffffffffffffffffffffffff021916908373ffffffffffffffffffffffffffffffffffffffff16021790555060056000805490501061047957600060054260008081548110610225577f4e487b7100000000000000000000000000000000000000000000000000000000600052603260045260246000fd5b9060005260206000200160009054906101000a900473ffffffffffffffffffffffffffffffffffffffff16600060018154811061028b577f4e487b7100000000000000000000000000000000000000000000000000000000600052603260045260246000fd5b9060005260206000200160009054906101000a900473ffffffffffffffffffffffffffffffffffffffff1660006002815481106102f1577f4e487b7100000000000000000000000000000000000000000000000000000000600052603260045260246000fd5b9060005260206000200160009054906101000a900473ffffffffffffffffffffffffffffffffffffffff166000600381548110610357577f4e487b7100000000000000000000000000000000000000000000000000000000600052603260045260246000fd5b9060005260206000200160009054906101000a900473ffffffffffffffffffffffffffffffffffffffff1660006004815481106103bd577f4e487b7100000000000000000000000000000000000000000000000000000000600052603260045260246000fd5b9060005260206000200160009054906101000a900473ffffffffffffffffffffffffffffffffffffffff166040516020016103fd969594939291906104f7565b6040516020818303038152906040528051906020012060001c6104209190610669565b90503373ffffffffffffffffffffffffffffffffffffffff166108fc620f42404761044b9190610582565b9081150290604051600060405180830381858888f19350505050158015610476573d6000803e3d6000fd5b50505b5b565b60008135905061048b81610705565b92915050565b6000602082840312156104a357600080fd5b60006104b18482850161047c565b91505092915050565b6104c3816105b6565b82525050565b6104da6104d5826105b6565b61063b565b82525050565b6104f16104ec826105e8565b61065f565b82525050565b600061050382896104e0565b60208201915061051382886104c9565b60148201915061052382876104c9565b60148201915061053382866104c9565b60148201915061054382856104c9565b60148201915061055382846104c9565b601482019150819050979650505050505050565b600060208201905061057c60008301846104ba565b92915050565b600061058d826105e8565b9150610598836105e8565b9250828210156105ab576105aa61069a565b5b828203905092915050565b60006105c1826105c8565b9050919050565b600073ffffffffffffffffffffffffffffffffffffffff82169050919050565b6000819050919050565b60006105fd826105e8565b91507fffffffffffffffffffffffffffffffffffffffffffffffffffffffffffffffff8214156106305761062f61069a565b5b600182019050919050565b60006106468261064d565b9050919050565b6000610658826106f8565b9050919050565b6000819050919050565b6000610674826105e8565b915061067f836105e8565b92508261068f5761068e6106c9565b5b828206905092915050565b7f4e487b7100000000000000000000000000000000000000000000000000000000600052601160045260246000fd5b7f4e487b7100000000000000000000000000000000000000000000000000000000600052601260045260246000fd5b60008160601b9050919050565b61070e816105e8565b811461071957600080fd5b5056fea2646970667358221220972f2b7eb06562077622bc63289eadc4387edcd55ae646bd81f3d52660d7d09b64736f6c63430008000033","opcodes":"PUSH1 0x80 PUSH1 0x40 MSTORE CALLVALUE DUP1 ISZERO PUSH2 0x10 JUMPI PUSH1 0x0 DUP1 REVERT JUMPDEST POP PUSH2 0x752 DUP1 PUSH2 0x20 PUSH1 0x0 CODECOPY PUSH1 0x0 RETURN INVALID PUSH1 0x80 PUSH1 0x40 MSTORE PUSH1 0x4 CALLDATASIZE LT PUSH2 0x29 JUMPI PUSH1 0x0 CALLDATALOAD PUSH1 0xE0 SHR DUP1 PUSH4 0xD0111AA8 EQ PUSH2 0x2E JUMPI DUP1 PUSH4 0xE97DCB62 EQ PUSH2 0x6B JUMPI JUMPDEST PUSH1 0x0 DUP1 REVERT JUMPDEST CALLVALUE DUP1 ISZERO PUSH2 0x3A JUMPI PUSH1 0x0 DUP1 REVERT JUMPDEST POP PUSH2 0x55 PUSH1 0x4 DUP1 CALLDATASIZE SUB DUP2 ADD SWAP1 PUSH2 0x50 SWAP2 SWAP1 PUSH2 0x491 JUMP JUMPDEST PUSH2 0x75 JUMP JUMPDEST PUSH1 0x40 MLOAD PUSH2 0x62 SWAP2 SWAP1 PUSH2 0x567 JUMP JUMPDEST PUSH1 0x40 MLOAD DUP1 SWAP2 SUB SWAP1 RETURN JUMPDEST PUSH2 0x73 PUSH2 0xB4 JUMP JUMPDEST STOP JUMPDEST PUSH1 0x0 DUP2 DUP2 SLOAD DUP2 LT PUSH2 0x85 JUMPI PUSH1 0x0 DUP1 REVERT JUMPDEST SWAP1 PUSH1 0x0 MSTORE PUSH1 0x20 PUSH1 0x0 KECCAK256 ADD PUSH1 0x0 SWAP2 POP SLOAD SWAP1 PUSH2 0x100 EXP SWAP1 DIV PUSH20 0xFFFFFFFFFFFFFFFFFFFFFFFFFFFFFFFFFFFFFFFF AND DUP2 JUMP JUMPDEST PUSH1 0x0 JUMPDEST PUSH1 0x0 DUP1 SLOAD SWAP1 POP DUP2 LT ISZERO PUSH2 0x175 JUMPI CALLER PUSH20 0xFFFFFFFFFFFFFFFFFFFFFFFFFFFFFFFFFFFFFFFF AND PUSH1 0x0 DUP3 DUP2 SLOAD DUP2 LT PUSH2 0x115 JUMPI PUSH32 0x4E487B7100000000000000000000000000000000000000000000000000000000 PUSH1 0x0 MSTORE PUSH1 0x32 PUSH1 0x4 MSTORE PUSH1 0x24 PUSH1 0x0 REVERT JUMPDEST SWAP1 PUSH1 0x0 MSTORE PUSH1 0x20 PUSH1 0x0 KECCAK256 ADD PUSH1 0x0 SWAP1 SLOAD SWAP1 PUSH2 0x100 EXP SWAP1 DIV PUSH20 0xFFFFFFFFFFFFFFFFFFFFFFFFFFFFFFFFFFFFFFFF AND PUSH20 0xFFFFFFFFFFFFFFFFFFFFFFFFFFFFFFFFFFFFFFFF AND EQ ISZERO PUSH2 0x162 JUMPI POP PUSH2 0x47A JUMP JUMPDEST DUP1 DUP1 PUSH2 0x16D SWAP1 PUSH2 0x5F2 JUMP JUMPDEST SWAP2 POP POP PUSH2 0xB7 JUMP JUMPDEST POP PUSH1 0x0 CALLER SWAP1 DUP1 PUSH1 0x1 DUP2 SLOAD ADD DUP1 DUP3 SSTORE DUP1 SWAP2 POP POP PUSH1 0x1 SWAP1 SUB SWAP1 PUSH1 0x0 MSTORE PUSH1 0x20 PUSH1 0x0 KECCAK256 ADD PUSH1 0x0 SWAP1 SWAP2 SWAP1 SWAP2 SWAP1 SWAP2 PUSH2 0x100 EXP DUP2 SLOAD DUP2 PUSH20 0xFFFFFFFFFFFFFFFFFFFFFFFFFFFFFFFFFFFFFFFF MUL NOT AND SWAP1 DUP4 PUSH20 0xFFFFFFFFFFFFFFFFFFFFFFFFFFFFFFFFFFFFFFFF AND MUL OR SWAP1 SSTORE POP PUSH1 0x5 PUSH1 0x0 DUP1 SLOAD SWAP1 POP LT PUSH2 0x479 JUMPI PUSH1 0x0 PUSH1 0x5 TIMESTAMP PUSH1 0x0 DUP1 DUP2 SLOAD DUP2 LT PUSH2 0x225 JUMPI PUSH32 0x4E487B7100000000000000000000000000000000000000000000000000000000 PUSH1 0x0 MSTORE PUSH1 0x32 PUSH1 0x4 MSTORE PUSH1 0x24 PUSH1 0x0 REVERT JUMPDEST SWAP1 PUSH1 0x0 MSTORE PUSH1 0x20 PUSH1 0x0 KECCAK256 ADD PUSH1 0x0 SWAP1 SLOAD SWAP1 PUSH2 0x100 EXP SWAP1 DIV PUSH20 0xFFFFFFFFFFFFFFFFFFFFFFFFFFFFFFFFFFFFFFFF AND PUSH1 0x0 PUSH1 0x1 DUP2 SLOAD DUP2 LT PUSH2 0x28B JUMPI PUSH32 0x4E487B7100000000000000000000000000000000000000000000000000000000 PUSH1 0x0 MSTORE PUSH1 0x32 PUSH1 0x4 MSTORE PUSH1 0x24 PUSH1 0x0 REVERT JUMPDEST SWAP1 PUSH1 0x0 MSTORE PUSH1 0x20 PUSH1 0x0 KECCAK256 ADD PUSH1 0x0 SWAP1 SLOAD SWAP1 PUSH2 0x100 EXP SWAP1 DIV PUSH20 0xFFFFFFFFFFFFFFFFFFFFFFFFFFFFFFFFFFFFFFFF AND PUSH1 0x0 PUSH1 0x2 DUP2 SLOAD DUP2 LT PUSH2 0x2F1 JUMPI PUSH32 0x4E487B7100000000000000000000000000000000000000000000000000000000 PUSH1 0x0 MSTORE PUSH1 0x32 PUSH1 0x4 MSTORE PUSH1 0x24 PUSH1 0x0 REVERT JUMPDEST SWAP1 PUSH1 0x0 MSTORE PUSH1 0x20 PUSH1 0x0 KECCAK256 ADD PUSH1 0x0 SWAP1 SLOAD SWAP1 PUSH2 0x100 EXP SWAP1 DIV PUSH20 0xFFFFFFFFFFFFFFFFFFFFFFFFFFFFFFFFFFFFFFFF AND PUSH1 0x0 PUSH1 0x3 DUP2 SLOAD DUP2 LT PUSH2 0x357 JUMPI PUSH32 0x4E487B7100000000000000000000000000000000000000000000000000000000 PUSH1 0x0 MSTORE PUSH1 0x32 PUSH1 0x4 MSTORE PUSH1 0x24 PUSH1 0x0 REVERT JUMPDEST SWAP1 PUSH1 0x0 MSTORE PUSH1 0x20 PUSH1 0x0 KECCAK256 ADD PUSH1 0x0 SWAP1 SLOAD SWAP1 PUSH2 0x100 EXP SWAP1 DIV PUSH20 0xFFFFFFFFFFFFFFFFFFFFFFFFFFFFFFFFFFFFFFFF AND PUSH1 0x0 PUSH1 0x4 DUP2 SLOAD DUP2 LT PUSH2 0x3BD JUMPI PUSH32 0x4E487B7100000000000000000000000000000000000000000000000000000000 PUSH1 0x0 MSTORE PUSH1 0x32 PUSH1 0x4 MSTORE PUSH1 0x24 PUSH1 0x0 REVERT JUMPDEST SWAP1 PUSH1 0x0 MSTORE PUSH1 0x20 PUSH1 0x0 KECCAK256 ADD PUSH1 0x0 SWAP1 SLOAD SWAP1 PUSH2 0x100 EXP SWAP1 DIV PUSH20 0xFFFFFFFFFFFFFFFFFFFFFFFFFFFFFFFFFFFFFFFF AND PUSH1 0x40 MLOAD PUSH1 0x20 ADD PUSH2 0x3FD SWAP7 SWAP6 SWAP5 SWAP4 SWAP3 SWAP2 SWAP1 PUSH2 0x4F7 JUMP JUMPDEST PUSH1 0x40 MLOAD PUSH1 0x20 DUP2 DUP4 SUB SUB DUP2 MSTORE SWAP1 PUSH1 0x40 MSTORE DUP1 MLOAD SWAP1 PUSH1 0x20 ADD KECCAK256 PUSH1 0x0 SHR PUSH2 0x420 SWAP2 SWAP1 PUSH2 0x669 JUMP JUMPDEST SWAP1 POP CALLER PUSH20 0xFFFFFFFFFFFFFFFFFFFFFFFFFFFFFFFFFFFFFFFF AND PUSH2 0x8FC PUSH3 0xF4240 SELFBALANCE PUSH2 0x44B SWAP2 SWAP1 PUSH2 0x582 JUMP JUMPDEST SWAP1 DUP2 ISZERO MUL SWAP1 PUSH1 0x40 MLOAD PUSH1 0x0 PUSH1 0x40 MLOAD DUP1 DUP4 SUB DUP2 DUP6 DUP9 DUP9 CALL SWAP4 POP POP POP POP ISZERO DUP1 ISZERO PUSH2 0x476 JUMPI RETURNDATASIZE PUSH1 0x0 DUP1 RETURNDATACOPY RETURNDATASIZE PUSH1 0x0 REVERT JUMPDEST POP POP JUMPDEST JUMPDEST JUMP JUMPDEST PUSH1 0x0 DUP2 CALLDATALOAD SWAP1 POP PUSH2 0x48B DUP2 PUSH2 0x705 JUMP JUMPDEST SWAP3 SWAP2 POP POP JUMP JUMPDEST PUSH1 0x0 PUSH1 0x20 DUP3 DUP5 SUB SLT ISZERO PUSH2 0x4A3 JUMPI PUSH1 0x0 DUP1 REVERT JUMPDEST PUSH1 0x0 PUSH2 0x4B1 DUP5 DUP3 DUP6 ADD PUSH2 0x47C JUMP JUMPDEST SWAP2 POP POP SWAP3 SWAP2 POP POP JUMP JUMPDEST PUSH2 0x4C3 DUP2 PUSH2 0x5B6 JUMP JUMPDEST DUP3 MSTORE POP POP JUMP JUMPDEST PUSH2 0x4DA PUSH2 0x4D5 DUP3 PUSH2 0x5B6 JUMP JUMPDEST PUSH2 0x63B JUMP JUMPDEST DUP3 MSTORE POP POP JUMP JUMPDEST PUSH2 0x4F1 PUSH2 0x4EC DUP3 PUSH2 0x5E8 JUMP JUMPDEST PUSH2 0x65F JUMP JUMPDEST DUP3 MSTORE POP POP JUMP JUMPDEST PUSH1 0x0 PUSH2 0x503 DUP3 DUP10 PUSH2 0x4E0 JUMP JUMPDEST PUSH1 0x20 DUP3 ADD SWAP2 POP PUSH2 0x513 DUP3 DUP9 PUSH2 0x4C9 JUMP JUMPDEST PUSH1 0x14 DUP3 ADD SWAP2 POP PUSH2 0x523 DUP3 DUP8 PUSH2 0x4C9 JUMP JUMPDEST PUSH1 0x14 DUP3 ADD SWAP2 POP PUSH2 0x533 DUP3 DUP7 PUSH2 0x4C9 JUMP JUMPDEST PUSH1 0x14 DUP3 ADD SWAP2 POP PUSH2 0x543 DUP3 DUP6 PUSH2 0x4C9 JUMP JUMPDEST PUSH1 0x14 DUP3 ADD SWAP2 POP PUSH2 0x553 DUP3 DUP5 PUSH2 0x4C9 JUMP JUMPDEST PUSH1 0x14 DUP3 ADD SWAP2 POP DUP2 SWAP1 POP SWAP8 SWAP7 POP POP POP POP POP POP POP JUMP JUMPDEST PUSH1 0x0 PUSH1 0x20 DUP3 ADD SWAP1 POP PUSH2 0x57C PUSH1 0x0 DUP4 ADD DUP5 PUSH2 0x4BA JUMP JUMPDEST SWAP3 SWAP2 POP POP JUMP JUMPDEST PUSH1 0x0 PUSH2 0x58D DUP3 PUSH2 0x5E8 JUMP JUMPDEST SWAP2 POP PUSH2 0x598 DUP4 PUSH2 0x5E8 JUMP JUMPDEST SWAP3 POP DUP3 DUP3 LT ISZERO PUSH2 0x5AB JUMPI PUSH2 0x5AA PUSH2 0x69A JUMP JUMPDEST JUMPDEST DUP3 DUP3 SUB SWAP1 POP SWAP3 SWAP2 POP POP JUMP JUMPDEST PUSH1 0x0 PUSH2 0x5C1 DUP3 PUSH2 0x5C8 JUMP JUMPDEST SWAP1 POP SWAP2 SWAP1 POP JUMP JUMPDEST PUSH1 0x0 PUSH20 0xFFFFFFFFFFFFFFFFFFFFFFFFFFFFFFFFFFFFFFFF DUP3 AND SWAP1 POP SWAP2 SWAP1 POP JUMP JUMPDEST PUSH1 0x0 DUP2 SWAP1 POP SWAP2 SWAP1 POP JUMP JUMPDEST PUSH1 0x0 PUSH2 0x5FD DUP3 PUSH2 0x5E8 JUMP JUMPDEST SWAP2 POP PUSH32 0xFFFFFFFFFFFFFFFFFFFFFFFFFFFFFFFFFFFFFFFFFFFFFFFFFFFFFFFFFFFFFFFF DUP3 EQ ISZERO PUSH2 0x630 JUMPI PUSH2 0x62F PUSH2 0x69A JUMP JUMPDEST JUMPDEST PUSH1 0x1 DUP3 ADD SWAP1 POP SWAP2 SWAP1 POP JUMP JUMPDEST PUSH1 0x0 PUSH2 0x646 DUP3 PUSH2 0x64D JUMP JUMPDEST SWAP1 POP SWAP2 SWAP1 POP JUMP JUMPDEST PUSH1 0x0 PUSH2 0x658 DUP3 PUSH2 0x6F8 JUMP JUMPDEST SWAP1 POP SWAP2 SWAP1 POP JUMP JUMPDEST PUSH1 0x0 DUP2 SWAP1 POP SWAP2 SWAP1 POP JUMP JUMPDEST PUSH1 0x0 PUSH2 0x674 DUP3 PUSH2 0x5E8 JUMP JUMPDEST SWAP2 POP PUSH2 0x67F DUP4 PUSH2 0x5E8 JUMP JUMPDEST SWAP3 POP DUP3 PUSH2 0x68F JUMPI PUSH2 0x68E PUSH2 0x6C9 JUMP JUMPDEST JUMPDEST DUP3 DUP3 MOD SWAP1 POP SWAP3 SWAP2 POP POP JUMP JUMPDEST PUSH32 0x4E487B7100000000000000000000000000000000000000000000000000000000 PUSH1 0x0 MSTORE PUSH1 0x11 PUSH1 0x4 MSTORE PUSH1 0x24 PUSH1 0x0 REVERT JUMPDEST PUSH32 0x4E487B7100000000000000000000000000000000000000000000000000000000 PUSH1 0x0 MSTORE PUSH1 0x12 PUSH1 0x4 MSTORE PUSH1 0x24 PUSH1 0x0 REVERT JUMPDEST PUSH1 0x0 DUP2 PUSH1 0x60 SHL SWAP1 POP SWAP2 SWAP1 POP JUMP JUMPDEST PUSH2 0x70E DUP2 PUSH2 0x5E8 JUMP JUMPDEST DUP2 EQ PUSH2 0x719 JUMPI PUSH1 0x0 DUP1 REVERT JUMPDEST POP JUMP INVALID LOG2 PUSH5 0x6970667358 0x22 SLT KECCAK256 SWAP8 0x2F 0x2B PUSH31 0xB06562077622BC63289EADC4387EDCD55AE646BD81F3D52660D7D09B64736F PUSH13 0x63430008000033000000000000 "},"gasEstimates":{"creation":{"codeDepositCost":"374800","executionCost":"411","totalCost":"375211"},"external":{"enter()":"infinite","thisPool(uint256)":"2334"}},"methodIdentifiers":{"enter()":"e97dcb62","thisPool(uint256)":"d0111aa8"}},"storageLayout":{"storage":[{"astId":4,"contract":"fileName:MyContract","label":"thisPool","offset":0,"slot":"0","type":"t_array(t_address)dyn_storage"}],"types":{"t_address":{"encoding":"inplace","label":"address","numberOfBytes":"20"},"t_array(t_address)dyn_storage":{"base":"t_address","encoding":"dynamic_array","label":"address[]","numberOfBytes":"32"}}},"userdoc":{"kind":"user","methods":{},"version":1}}